:020000040800F2
:100000000000022079020008670200086902000867
:100010006B0200086D0200086F020008000000007B
:100020000000000000000000000000007102000855
:100030007302000800000000750200086302000857
:1000400065020008650200086502000865020008F4
:1000500065020008650200086502000865020008E4
:1000600065020008650200086502000865020008D4
:1000700065020008650200086502000865020008C4
:1000800065020008650200086502000865020008B4
:1000900065020008650200086502000865020008A4
:1000A0006502000865020008650200086502000894
:1000B0006502000865020008650200086502000884
:1000C0006502000865020008650200086502000874
:1000D0006502000865020008650200086502000864
:1000E0006502000865020008650200086502000854
:1000F0006502000865020008650200086502000844
:100100006502000865020008650200086502000833
:100110006502000865020008650200086502000823
:100120006502000865020008650200086502000813
:100130006502000865020008650200086502000803
:1001400065020008650200086502000865020008F3
:1001500065020008650200086502000865020008E3
:1001600065020008650200086502000865020008D3
:1001700065020008650200086502000865020008C3
:1001800065020008650200086502000865020008B3
:08019000650200086502000889
:100198000348044B834202D0034B03B1184770470E
:1001A8000000002000000020000000000548064B69
:1001B8001B1AD90F01EBA301491002D0034B03B15D
:1001C80018477047000000200000002000000000D1
:1001D80010B5064C237843B9FFF7DAFF044B13B187
:1001E8000448AFF300800123237010BD00000020F5
:1001F800000000001003000808B5054B1BB10549B5
:100208000548AFF30080BDE80840FFF7CFBF00BF47
:1002180000000000040000201003000808B500F0EA
:1002280001F8FEE70A4A136B43F008031363A2F5CB
:100238003052136823F03F0306490B601360D368FC
:1002480023F03F030B6043F015030B60D360704746
:10025800003802401C0000207047FEE77047FEE7A8
:10026800FEE7FEE7FEE7FEE7FEE7FEE7FEE7000043
:10027800DFF834D00D480E490E4A002302E0D45866
:10028800C4500433C4188C42F9D30B4A0B4C0023D6
:1002980001E013600432A242FBD3FFF7DDFF00F058
:1002A8000FF8FFF7BBFF7047000002200000002096
:1002B800000000203003000800000020200000207B
:1002C80070B50D4D0D4C641BA4100026A64209D133
:1002D8000B4D0C4C00F018F8641BA4100026A64225
:1002E80005D170BD55F8043B98470136EEE755F83F
:1002F800043B98470136F2E7280300082803000862
:10030800280300082C030008F8B500BFF8BC08BC97
:100318009E467047F8B500BFF8BC08BC9E467047BB
:0403280001020008C6
:04032C00D9010008EB
:040000050800027974
:00000001FF
