:020000040800F2
:1000000000000220290200082B0200082D0200082F
:100010002F0200083102000833020008000000002F
:100020000000000000000000000000003502000891
:10003000370200080000000039020008250200080D
:1000400027020008270200082702000827020008EC
:1000500027020008270200082702000827020008DC
:1000600027020008270200082702000827020008CC
:1000700027020008270200082702000827020008BC
:1000800027020008270200082702000827020008AC
:10009000270200082702000827020008270200089C
:1000A000270200082702000827020008270200088C
:1000B000270200082702000827020008270200087C
:1000C000270200082702000827020008270200086C
:1000D000270200082702000827020008270200085C
:1000E000270200082702000827020008270200084C
:1000F000270200082702000827020008270200083C
:10010000270200082702000827020008270200082B
:10011000270200082702000827020008270200081B
:10012000270200082702000827020008270200080B
:1001300027020008270200082702000827020008FB
:1001400027020008270200082702000827020008EB
:1001500027020008270200082702000827020008DB
:1001600027020008270200082702000827020008CB
:1001700027020008270200082702000827020008BB
:1001800027020008270200082702000827020008AB
:08019000270200082702000805
:100198000348044B834202D0034B03B1184770470E
:1001A8000000002000000020000000000548064B69
:1001B8001B1AD90F01EBA301491002D0034B03B15D
:1001C80018477047000000200000002000000000D1
:1001D80010B5064C237843B9FFF7DAFF044B13B187
:1001E8000448AFF300800123237010BD00000020F5
:1001F800000000003C02000808B5054B1BB105498A
:100208000548AFF30080BDE80840FFF7CFBF00BF47
:1002180000000000040000203C020008FEE77047D0
:10022800FEE7FEE7FEE7FEE7FEE7FEE7FEE7FEE79E
:10023800FEE70000F8B500BFF8BC08BC9E46704752
:0C024800F8B500BFF8BC08BC9E4670472B
:04025400010200089B
:04025800D9010008C0
:0400000508000229C4
:00000001FF
